:1000000019C1000045C1000043C1000041C100000A
:100010003FC100003DC100003BC1000039C10000EC
:1000200037C1000035C1000033C1000031C10000FC
:100030002FC100002DC100002BC1000029C100000C
:1000400027C1000025C1000023C1000021C100001C
:100050001FC100001DC100001BC1000019C300002A
:1000600017C1000088C300005DC3000011C100007B
:100070000FC100000DC100000BC1000009C100004C
:1000800007C1000005C1000003C1000001C100005C
:10009000FFC00000FDC00000FBC00000F9C0000070
:1000A000F7C00000F5C00000F3C00000F1C0000080
:1000B000EFC00000EDC00000EBC00000E9C0000090
:1000C000E7C00000E5C00000E3C00000E1C00000A0
:1000D000DFC00000DDC00000DBC00000D9C00000B0
:1000E000D7C000007401770166016A016E01AE019C
:1000F0007B017F01850189018D01930197019B019E
:10010000AE01A101A501A90109050E0513051D05F3
:100110002705A0053105390541054B0555055F0546
:100120006E057805A00582058C0596050000210066
:10013000240027002A002D003000330001010000B8
:10014000040107010A0100002200250028002B00FD
:100150002E003100340002010000050108010B01EE
:1001600005050505070508080808020202020A0A33
:100170000808040404040101010101010101030351
:10018000030303030303040707070C0C0C0C0C0CFC
:100190000C0C0202020206060606060606060B0BF9
:1001A0000B0B0B0B0B0B010210202008081020403A
:1001B000102040800201020108040201010204082B
:1001C00010204080804020100804020180040201B9
:1001D0008040201008040201080402010102040802
:1001E00010204080010204081020408000000A0B0B
:1001F00002090C0D0E0807030401000000000000B6
:1002000000000000000000000000000000000000EE
:1002100000000000000000001211100000000000AB
:1002200000000000000000000000000000000000CE
:100230000000B50511241FBECFEFD1E2DEBFCDBF58
:1002400000E00CBF12E0A0E0B2E0E6E8FCE000E075
:100250000BBF02C007900D92A631B107D9F722E07B
:10026000A6E1B2E001C01D92AC3BB207E1F711E09C
:10027000CAE1D1E000E005C021970109802FFE010D
:10028000EED4C931D10780E00807B1F7AAD2F9C48A
:10029000B7CECF93C82FE3EFF1E04491EDEAF1E060
:1002A0002491E7E6F1E09491992309F46AC044238C
:1002B00009F454C050E0FA013197E231F10508F039
:1002C0004DC08827EE58FF4F8F4FC9C480918000E2
:1002D0008F7707C0809180008F7D03C08091800060
:1002E000877F809380003AC084B58F7702C084B541
:1002F0008F7D84BD33C08091B0008F7703C0809123
:10030000B0008F7D8093B00029C0809190008F77DE
:1003100007C0809190008F7D03C080919000877FFF
:10032000809390001BC08091A0008F7707C08091C0
:10033000A0008F7D03C08091A000877F8093A000E4
:100340000DC0309120013F7707C0309120013F7DE3
:1003500003C030912001377F30932001E92FF0E076
:10036000EE0FFF1FEA5BFE4FA591B4918FB7F89493
:10037000EC91C11103C020952E2301C02E2B2C938C
:100380008FBFCF910895CF92DF92EF92FF920F939C
:100390001F93CF93DF936C017A018B01C0E0D0E013
:1003A000CE15DF0589F0D8016D918D01D601ED9153
:1003B000FC910190F081E02DC6011995892B11F473
:1003C0007E0102C02196ECCFC701DF91CF911F9132
:1003D0000F91FF90EF90DF90CF900895089580E007
:1003E00090E00895FC01538D448D252F30E0842F3B
:1003F00090E0821B930B541710F0CF96089501974D
:100400000895FC01918D828D981761F0828DDF0136
:10041000A80FB11D5D968C91928D9F5F9F73928FF7
:1004200090E008958FEF9FEF0895FC01918D828DEC
:10043000981731F0828DE80FF11D858D90E00895B9
:100440008FEF9FEF0895FC01918D228D892F90E011
:10045000805C9F4F821B91098F73992708958FE1CC
:1004600092E0F1DF21E0892B09F420E0822F08954A
:10047000FC01848DDF01A80FB11DA35ABF4F2C9141
:10048000848D90E001968F739927848FA689B78910
:100490002C93A089B1898C9180648C93938D848DE9
:1004A000981306C00288F389E02D80818F7D8083B8
:1004B0000895EF92FF920F931F93CF93DF93EC0178
:1004C00081E0888F9B8D8C8D981305C0E889F98910
:1004D000808185FD23C0F62E0B8D10E00F5F1F4F2E
:1004E0000F731127E02E8C8DE8120BC00FB607FC9E
:1004F000FACFE889F989808185FFF5CFCE01B8DF91
:10050000F2CF8B8DFE01E80FF11DE35AFF4FF08211
:100510000B8FEA89FB898081806207C0EE89FF89A1
:100520006083E889F98980818064808381E090E03C
:10053000DF91CF911F910F91FF90EF900895CF938E
:10054000DF93EC01888D8823C1F0EA89FB898081E3
:1005500085FD05C0A889B9898C9186FD0EC00FB6AE
:1005600007FCF5CF808185FFF2CFA889B9898C91EE
:1005700085FFEDCFCE017CDFE8CFDF91CF910895ED
:1005800080E090E0892B19F06ADF811125C080E0BE
:1005900090E0892B41F080E090E0892B21F00E94CF
:1005A000000081111CC080E090E0892B41F080E0C8
:1005B00090E0892B21F00E940000811113C080E09F
:1005C00090E0892BA1F080E090E0892B81F00E94DF
:1005D000000081110AC008950E940000D8CF0E9437
:1005E0000000E1CF0E940000EACF0C9400000895C3
:1005F0008F929F92AF92BF920F931F93CF93DF93EF
:10060000CDB7DEB7A1970FB6F894DEBF0FBECDBF52
:1006100019A2423008F44AE08E010F5D1F4F842E6C
:10062000912CA12CB12CA5019401E8D2E62FB9019F
:10063000CA0101501109EA3014F4E05D01C0E95C1F
:10064000D801EC93232B242B252B69F701151105D9
:1006500069F0F80101900020E9F73197AF01401BE4
:10066000510BB8018FE192E08EDE02C080E090E095
:10067000A1960FB6F894DEBF0FBECDBFDF91CF912C
:100680001F910F91BF90AF909F908F900895F5D2DA
:100690001F920F920FB60F9211242F933F938F93B7
:1006A0009F93AF93BF9380911B0290911C02A091E6
:1006B0001D02B0911E0230911A0223E0230F2D3744
:1006C00020F40196A11DB11D05C026E8230F029656
:1006D000A11DB11D20931A0280931B0290931C024E
:1006E000A0931D02B0931E028091160290911702F2
:1006F000A0911802B09119020196A11DB11D80931D
:10070000160290931702A0931802B0931902BF919A
:10071000AF919F918F913F912F910F900FBE0F90AE
:100720001F9018951F920F920FB60F9211240BB6BF
:100730000F922F933F934F935F936F937F938F937A
:100740009F93AF93BF93EF93FF938FE192E090DE7F
:10075000FF91EF91BF91AF919F918F917F916F9199
:100760005F914F913F912F910F900BBE0F900FBE55
:100770000F901F9018951F920F920FB60F92112491
:100780000BB60F922F938F939F93EF93FF93E0916C
:100790002F02F09130028081E0913502F091360213
:1007A00082FD12C09081809138028F5F8F732091FB
:1007B0003902821751F0E0913802F0E0E15EFD4F1E
:1007C000958F8093380201C08081FF91EF919F91B6
:1007D0008F912F910F900BBE0F900FBE0F901F9017
:1007E0001895789484B5826084BD84B5816084BD99
:1007F00085B5826085BD85B5816085BD80916E00BF
:10080000816080936E0010928100809181008260EF
:10081000809381008091810081608093810080912C
:1008200080008160809380008091B100846080931B
:10083000B1008091B00081608093B0008091910000
:1008400082608093910080919100816080939100FB
:10085000809190008160809390008091A1008260DF
:100860008093A1008091A10081608093A10080917C
:10087000A00081608093A00080912101826080931C
:1008800021018091210181608093210180912001CB
:1008900081608093200180917A00846080937A0047
:1008A00080917A00826080937A0080917A008160E2
:1008B00080937A0080917A00806880937A00109209
:1008C000C10081E080930002E0912F02F09130029C
:1008D00082E08083E0912B02F0912C021082E09163
:1008E0002D02F0912E028FEC808310923702E0915E
:1008F0003302F091340286E08083E0913102F0917E
:100900003202808180618083E0913102F091320275
:10091000808188608083E0913102F0913202808191
:1009200080688083E0913102F091320280818F7D76
:10093000808388248A9453E0952EA12CB12CCDEA93
:10094000D1E007E611E063EFE62E61E0F62E80913C
:100950007B00877F80937B008091000220E4829F50
:10096000C001112480937C0080917A008064809380
:100970007A0080917A0086FDFCCFA091780080916A
:100980007900B0E0B82B2FEF30E071D1A5019401D0
:1009900019D157FD09C069012F3F310539F034F0F5
:1009A000CC24CA94D12C02C0C12CD12CFE0124919C
:1009B000F8018491882399F090E0880F991FFC0139
:1009C000E45DFE4FA591B491FC01EA5BFE4F859179
:1009D00094918FB7F8949C91292B2C938FBFC114BD
:1009E000D10411F480E005C0FFEFCF16D10419F453
:1009F00081E04FDCABC0F701849190E0FC013197BE
:100A0000E231F10508F09CC08827EC57FF4F8F4F6B
:100A100026C184B5806884BDC7BC98C084B5806297
:100A200084BDC8BC93C080918000806880938000A2
:100A3000D0928900C092880089C080918000806235
:100A400080938000D0928B00C0928A007FC08091FA
:100A50008000886080938000D0928D00C0928C00CE
:100A600075C08091B00080688093B000C092B300E0
:100A70006DC08091B00080628093B000C092B400DD
:100A800065C080919000806880939000D09299001A
:100A9000C09298005BC0809190008062809390002B
:100AA000D0929B00C0929A0051C0809190008860C3
:100AB00080939000D0929D00C0929C0047C080918E
:100AC000A00080688093A0008091A0008F7B80931D
:100AD000A000D092A900C092A80038C08091A000C8
:100AE00080628093A000D092AB00C092AA002EC07A
:100AF0008091A00088608093A000D092AD00C09249
:100B0000AC0024C080912001806880932001D092A5
:100B10002901C09228011AC080912001806280932F
:100B20002001D0922B01C0922A0110C08091200197
:100B3000886080932001D0922D01C0922C0106C0C4
:100B4000F0E8CF16D1040CF053CF4CCFB601DD0C3A
:100B5000880B990B4AE04CDD42E050E063E172E023
:100B60008FE192E010DC0CDDF2CEEFE1F2E01382D7
:100B7000128288EE93E0A0E0B0E084839583A683A0
:100B8000B78385E092E09183808385EC90E0958740
:100B9000848784EC90E09787868780EC90E0918B47
:100BA000808B81EC90E0938B828B82EC90E0958B34
:100BB000848B86EC90E0978B868B118E128E138E31
:100BC000148E0895052E97FB16F400940FD057FD50
:100BD00005D014D007FC02D046F408C050954095CB
:100BE000309521953F4F4F4F5F4F089590958095D9
:100BF000709561957F4F8F4F9F4F0895A1E21A2EF8
:100C0000AA1BBB1BFD010DC0AA1FBB1FEE1FFF1FB0
:100C1000A217B307E407F50720F0A21BB30BE40B00
:100C2000F50B661F771F881F991F1A9469F7609547
:100C30007095809590959B01AC01BD01CF01089501
:100C4000A29FB001B39FC001A39F700D811D11240D
:100C5000911DB29F700D811D1124911D0895EE0FFD
:100C6000FF1F881F8BBF0790F691E02D1994E8DFD6
:100C7000B7FF0895821B930B089581E090E0F894EC
:060C800000C0F894FFCF54
:100C860001000000005902C301F2019F0223020184
:060C96000215020D0A0028
:00000001FF
